{
  "_format": "hh-sol-artifact-1",
  "contractName": "Greeter",
  "sourceName": "contracts/Greeter.sol",
  "abi": [
    {
      "inputs": [
        {
          "internalType": "string",
          "name": "_colorChosen",
          "type": "string"
        },
        {
          "internalType": "uint8",
          "name": "_numChosen",
          "type": "uint8"
        },
        {
          "internalType": "bool",
          "name": "_winning",
          "type": "bool"
        },
        {
          "internalType": "string",
          "name": "_winner",
          "type": "string"
        }
      ],
      "stateMutability": "nonpayable",
      "type": "constructor"
    },
    {
      "inputs": [
        {
          "internalType": "bytes",
          "name": "data",
          "type": "bytes"
        }
      ],
      "name": "bytesToString",
      "outputs": [
        {
          "internalType": "string",
          "name": "",
          "type": "string"
        }
      ],
      "stateMutability": "pure",
      "type": "function"
    },
    {
      "inputs": [
        {
          "internalType": "string",
          "name": "a",
          "type": "string"
        },
        {
          "internalType": "string",
          "name": "b",
          "type": "string"
        }
      ],
      "name": "compareStrings",
      "outputs": [
        {
          "internalType": "bool",
          "name": "",
          "type": "bool"
        }
      ],
      "stateMutability": "pure",
      "type": "function"
    },
    {
      "inputs": [],
      "name": "greet",
      "outputs": [
        {
          "internalType": "string",
          "name": "",
          "type": "string"
        },
        {
          "internalType": "string",
          "name": "",
          "type": "string"
        }
      ],
      "stateMutability": "view",
      "type": "function"
    },
    {
      "inputs": [],
      "name": "random",
      "outputs": [
        {
          "internalType": "uint256",
          "name": "",
          "type": "uint256"
        }
      ],
      "stateMutability": "view",
      "type": "function"
    },
    {
      "inputs": [
        {
          "internalType": "uint256",
          "name": "",
          "type": "uint256"
        }
      ],
      "name": "roletas",
      "outputs": [
        {
          "internalType": "uint256",
          "name": "numSorted",
          "type": "uint256"
        },
        {
          "internalType": "string",
          "name": "color",
          "type": "string"
        }
      ],
      "stateMutability": "view",
      "type": "function"
    },
    {
      "inputs": [
        {
          "internalType": "string",
          "name": "_colorChosen",
          "type": "string"
        },
        {
          "internalType": "uint8",
          "name": "_numChosen",
          "type": "uint8"
        }
      ],
      "name": "setGreeting",
      "outputs": [],
      "stateMutability": "nonpayable",
      "type": "function"
    },
    {
      "inputs": [],
      "name": "sortRoleta",
      "outputs": [],
      "stateMutability": "nonpayable",
      "type": "function"
    }
  ],
  "bytecode": "0x60806040523480156200001157600080fd5b50604051620024993803806200249983398181016040528101906200003791906200067b565b620000676040518060600160405280602281526020016200247760229139856200022460201b620009741760201c565b6200009a60405180606001604052806022815260200162002477602291398460ff16620002ca60201b62000a101760201c565b8360009080519060200190620000b292919062000399565b5082600360006101000a81548160ff021916908360ff16021790555081600160006101000a81548160ff02191690831515021790555080600290805190602001906200010092919062000399565b506200010b6200042a565b600080546200011a906200075a565b80601f016020809104026020016040519081016040528092919081815260200182805462000148906200075a565b8015620001995780601f106200016d5761010080835404028352916020019162000199565b820191906000526020600020905b8154815290600101906020018083116200017b57829003601f168201915b50505050508160200181905250600360009054906101000a900460ff1660ff1681600001818152505060068190806001815401808255809150506001900390600052602060002090600202016000909190919091506000820151816000015560208201518160010190805190602001906200021692919062000399565b505050505050505062000877565b620002c682826040516024016200023d929190620007ed565b6040516020818303038152906040527f4b5c4277000000000000000000000000000000000000000000000000000000007bffffffffffffffffffffffffffffffffffffffffffffffffffffffff19166020820180517bffffffffffffffffffffffffffffffffffffffffffffffffffffffff83818316178352505050506200037060201b60201c565b5050565b6200036c8282604051602401620002e392919062000843565b6040516020818303038152906040527f9710a9d0000000000000000000000000000000000000000000000000000000007bffffffffffffffffffffffffffffffffffffffffffffffffffffffff19166020820180517bffffffffffffffffffffffffffffffffffffffffffffffffffffffff83818316178352505050506200037060201b60201c565b5050565b60008151905060006a636f6e736f6c652e6c6f679050602083016000808483855afa5050505050565b828054620003a7906200075a565b90600052602060002090601f016020900481019282620003cb576000855562000417565b82601f10620003e657805160ff191683800117855562000417565b8280016001018555821562000417579182015b8281111562000416578251825591602001919060010190620003f9565b5b50905062000426919062000444565b5090565b604051806040016040528060008152602001606081525090565b5b808211156200045f57600081600090555060010162000445565b5090565b6000604051905090565b600080fd5b600080fd5b600080fd5b600080fd5b6000601f19601f8301169050919050565b7f4e487b7100000000000000000000000000000000000000000000000000000000600052604160045260246000fd5b620004cc8262000481565b810181811067ffffffffffffffff82111715620004ee57620004ed62000492565b5b80604052505050565b60006200050362000463565b9050620005118282620004c1565b919050565b600067ffffffffffffffff82111562000534576200053362000492565b5b6200053f8262000481565b9050602081019050919050565b60005b838110156200056c5780820151818401526020810190506200054f565b838111156200057c576000848401525b50505050565b600062000599620005938462000516565b620004f7565b905082815260208101848484011115620005b857620005b76200047c565b5b620005c58482856200054c565b509392505050565b600082601f830112620005e557620005e462000477565b5b8151620005f784826020860162000582565b91505092915050565b600060ff82169050919050565b620006188162000600565b81146200062457600080fd5b50565b60008151905062000638816200060d565b92915050565b60008115159050919050565b62000655816200063e565b81146200066157600080fd5b50565b60008151905062000675816200064a565b92915050565b600080600080608085870312156200069857620006976200046d565b5b600085015167ffffffffffffffff811115620006b957620006b862000472565b5b620006c787828801620005cd565b9450506020620006da8782880162000627565b9350506040620006ed8782880162000664565b925050606085015167ffffffffffffffff81111562000711576200071062000472565b5b6200071f87828801620005cd565b91505092959194509250565b7f4e487b7100000000000000000000000000000000000000000000000000000000600052602260045260246000fd5b600060028204905060018216806200077357607f821691505b602082108114156200078a57620007896200072b565b5b50919050565b600081519050919050565b600082825260208201905092915050565b6000620007b98262000790565b620007c581856200079b565b9350620007d78185602086016200054c565b620007e28162000481565b840191505092915050565b60006040820190508181036000830152620008098185620007ac565b905081810360208301526200081f8184620007ac565b90509392505050565b6000819050919050565b6200083d8162000828565b82525050565b600060408201905081810360008301526200085f8185620007ac565b905062000870602083018462000832565b9392505050565b611bf080620008876000396000f3fe608060405234801561001057600080fd5b506004361061007d5760003560e01c8063bed34bba1161005b578063bed34bba14610101578063c180096a14610131578063cfae32171461013b578063e28cb30c1461015a5761007d565b806339614e4f146100825780633b1726b3146100b25780635ec01e4d146100e3575b600080fd5b61009c600480360381019061009791906110bf565b610176565b6040516100a99190611190565b60405180910390f35b6100cc60048036038101906100c791906111e8565b6101cd565b6040516100da929190611224565b60405180910390f35b6100eb610289565b6040516100f89190611254565b60405180910390f35b61011b60048036038101906101169190611310565b610339565b60405161012891906113a3565b60405180910390f35b610139610392565b005b610143610489565b6040516101519291906113be565b60405180910390f35b610174600480360381019061016f919061142e565b610520565b005b606060008251116101bc576040517f08c379a00000000000000000000000000000000000000000000000000000000081526004016101b3906114d6565b60405180910390fd5b606060208301905080915050919050565b600681815481106101dd57600080fd5b906000526020600020906002020160009150905080600001549080600101805461020690611525565b80601f016020809104026020016040519081016040528092919081815260200182805461023290611525565b801561027f5780601f106102545761010080835404028352916020019161027f565b820191906000526020600020905b81548152906001019060200180831161026257829003601f168201915b5050505050905082565b60008060001b60014361029c9190611586565b4014156102de576040517f08c379a00000000000000000000000000000000000000000000000000000000081526004016102d590611606565b60405180910390fd5b60006001436102ed9190611586565b4060001c9050600042823360405160200161030a939291906116c1565b6040516020818303038152906040528051906020012060001c9050603281610332919061172d565b9250505090565b60008160405160200161034c919061179a565b6040516020818303038152906040528051906020012083604051602001610373919061179a565b6040516020818303038152906040528051906020012014905092915050565b600060066000815481106103a9576103a86117b1565b5b9060005260206000209060020201905060006103c3610289565b905080826000018190555060006002826103dd919061172d565b1415610436576040518060400160405280600581526020017f626c61636b000000000000000000000000000000000000000000000000000000815250826001019080519060200190610430929190610e35565b50610485565b6040518060400160405280600381526020017f7265640000000000000000000000000000000000000000000000000000000000815250826001019080519060200190610483929190610e35565b505b5050565b606080606080606080600060055490506104a58160ff16610aac565b92506104c2600360009054906101000a900460ff1660ff16610aac565b915060048360026040516020016104db939291906118e6565b6040516020818303038152906040529450816000604051602001610500929190611990565b604051602081830303815290604052935084849650965050505050509091565b6105cd604051806060016040528060238152602001611b98602391396000805461054990611525565b80601f016020809104026020016040519081016040528092919081815260200182805461057590611525565b80156105c25780601f10610597576101008083540402835291602001916105c2565b820191906000526020600020905b8154815290600101906020018083116105a557829003601f168201915b505050505084610c35565b81600090805190602001906105e3929190610e35565b5061061c604051806060016040528060238152602001611b9860239139600360009054906101000a900460ff1660ff168360ff16610cd4565b80600360006101000a81548160ff021916908360ff16021790555061063f610392565b60006006600081548110610656576106556117b1565b5b9060005260206000209060020201905080600101600490805461067890611525565b610683929190610ebb565b506106918160000154610d73565b600115156107b58260010180546106a790611525565b80601f01602080910402602001604051908101604052809291908181526020018280546106d390611525565b80156107205780601f106106f557610100808354040283529160200191610720565b820191906000526020600020905b81548152906001019060200180831161070357829003601f168201915b50505050506000805461073290611525565b80601f016020809104026020016040519081016040528092919081815260200182805461075e90611525565b80156107ab5780601f10610780576101008083540402835291602001916107ab565b820191906000526020600020905b81548152906001019060200180831161078e57829003601f168201915b5050505050610339565b1515141561089857600360009054906101000a900460ff1660ff16816000015414156108465760018060006101000a81548160ff0219169083151502179055506040518060400160405280601181526020017f596f752057696e21284249472057494e2900000000000000000000000000000081525060029080519060200190610840929190610e35565b50610893565b6040518060400160405280600881526020017f596f752057696e2100000000000000000000000000000000000000000000000081525060029080519060200190610891929190610e35565b505b61096f565b600360009054906101000a900460ff1660ff16816000015414156109215760018060006101000a81548160ff0219169083151502179055506040518060400160405280600881526020017f596f752057696e210000000000000000000000000000000000000000000000008152506002908051906020019061091b929190610e35565b5061096e565b6040518060400160405280600981526020017f596f75204c6f73652100000000000000000000000000000000000000000000008152506002908051906020019061096c929190610e35565b505b5b505050565b610a0c828260405160240161098a9291906113be565b6040516020818303038152906040527f4b5c4277000000000000000000000000000000000000000000000000000000007bffffffffffffffffffffffffffffffffffffffffffffffffffffffff19166020820180517bffffffffffffffffffffffffffffffffffffffffffffffffffffffff8381831617835250505050610e0c565b5050565b610aa88282604051602401610a269291906119d2565b6040516020818303038152906040527f9710a9d0000000000000000000000000000000000000000000000000000000007bffffffffffffffffffffffffffffffffffffffffffffffffffffffff19166020820180517bffffffffffffffffffffffffffffffffffffffffffffffffffffffff8381831617835250505050610e0c565b5050565b60606000821415610af4576040518060400160405280600181526020017f30000000000000000000000000000000000000000000000000000000000000008152509050610c30565b600082905060005b60008214610b26578080610b0f90611a02565b915050600a82610b1f9190611a4b565b9150610afc565b60008167ffffffffffffffff811115610b4257610b41610f94565b5b6040519080825280601f01601f191660200182016040528015610b745781602001600182028036833780820191505090505b50905060008290505b60008614610c2857600181610b929190611586565b90506000600a8088610ba49190611a4b565b610bae9190611a7c565b87610bb99190611586565b6030610bc59190611ad6565b905060008160f81b905080848481518110610be357610be26117b1565b5b60200101907effffffffffffffffffffffffffffffffffffffffffffffffffffffffffffff1916908160001a905350600a88610c1f9190611a4b565b97505050610b7d565b819450505050505b919050565b610ccf838383604051602401610c4d93929190611b0d565b6040516020818303038152906040527f2ced7cef000000000000000000000000000000000000000000000000000000007bffffffffffffffffffffffffffffffffffffffffffffffffffffffff19166020820180517bffffffffffffffffffffffffffffffffffffffffffffffffffffffff8381831617835250505050610e0c565b505050565b610d6e838383604051602401610cec93929190611b59565b6040516020818303038152906040527f969cdd03000000000000000000000000000000000000000000000000000000007bffffffffffffffffffffffffffffffffffffffffffffffffffffffff19166020820180517bffffffffffffffffffffffffffffffffffffffffffffffffffffffff8381831617835250505050610e0c565b505050565b610e0981604051602401610d879190611254565b6040516020818303038152906040527ff5b1bba9000000000000000000000000000000000000000000000000000000007bffffffffffffffffffffffffffffffffffffffffffffffffffffffff19166020820180517bffffffffffffffffffffffffffffffffffffffffffffffffffffffff8381831617835250505050610e0c565b50565b60008151905060006a636f6e736f6c652e6c6f679050602083016000808483855afa5050505050565b828054610e4190611525565b90600052602060002090601f016020900481019282610e635760008555610eaa565b82601f10610e7c57805160ff1916838001178555610eaa565b82800160010185558215610eaa579182015b82811115610ea9578251825591602001919060010190610e8e565b5b509050610eb79190610f48565b5090565b828054610ec790611525565b90600052602060002090601f016020900481019282610ee95760008555610f37565b82601f10610efa5780548555610f37565b82800160010185558215610f3757600052602060002091601f016020900482015b82811115610f36578254825591600101919060010190610f1b565b5b509050610f449190610f48565b5090565b5b80821115610f61576000816000905550600101610f49565b5090565b6000604051905090565b600080fd5b600080fd5b600080fd5b600080fd5b6000601f19601f8301169050919050565b7f4e487b7100000000000000000000000000000000000000000000000000000000600052604160045260246000fd5b610fcc82610f83565b810181811067ffffffffffffffff82111715610feb57610fea610f94565b5b80604052505050565b6000610ffe610f65565b905061100a8282610fc3565b919050565b600067ffffffffffffffff82111561102a57611029610f94565b5b61103382610f83565b9050602081019050919050565b82818337600083830152505050565b600061106261105d8461100f565b610ff4565b90508281526020810184848401111561107e5761107d610f7e565b5b611089848285611040565b509392505050565b600082601f8301126110a6576110a5610f79565b5b81356110b684826020860161104f565b91505092915050565b6000602082840312156110d5576110d4610f6f565b5b600082013567ffffffffffffffff8111156110f3576110f2610f74565b5b6110ff84828501611091565b91505092915050565b600081519050919050565b600082825260208201905092915050565b60005b83811015611142578082015181840152602081019050611127565b83811115611151576000848401525b50505050565b600061116282611108565b61116c8185611113565b935061117c818560208601611124565b61118581610f83565b840191505092915050565b600060208201905081810360008301526111aa8184611157565b905092915050565b6000819050919050565b6111c5816111b2565b81146111d057600080fd5b50565b6000813590506111e2816111bc565b92915050565b6000602082840312156111fe576111fd610f6f565b5b600061120c848285016111d3565b91505092915050565b61121e816111b2565b82525050565b60006040820190506112396000830185611215565b818103602083015261124b8184611157565b90509392505050565b60006020820190506112696000830184611215565b92915050565b600067ffffffffffffffff82111561128a57611289610f94565b5b61129382610f83565b9050602081019050919050565b60006112b36112ae8461126f565b610ff4565b9050828152602081018484840111156112cf576112ce610f7e565b5b6112da848285611040565b509392505050565b600082601f8301126112f7576112f6610f79565b5b81356113078482602086016112a0565b91505092915050565b6000806040838503121561132757611326610f6f565b5b600083013567ffffffffffffffff81111561134557611344610f74565b5b611351858286016112e2565b925050602083013567ffffffffffffffff81111561137257611371610f74565b5b61137e858286016112e2565b9150509250929050565b60008115159050919050565b61139d81611388565b82525050565b60006020820190506113b86000830184611394565b92915050565b600060408201905081810360008301526113d88185611157565b905081810360208301526113ec8184611157565b90509392505050565b600060ff82169050919050565b61140b816113f5565b811461141657600080fd5b50565b60008135905061142881611402565b92915050565b6000806040838503121561144557611444610f6f565b5b600083013567ffffffffffffffff81111561146357611462610f74565b5b61146f858286016112e2565b925050602061148085828601611419565b9150509250929050565b7f496e707574206461746120697320656d70747900000000000000000000000000600082015250565b60006114c0601383611113565b91506114cb8261148a565b602082019050919050565b600060208201905081810360008301526114ef816114b3565b9050919050565b7f4e487b7100000000000000000000000000000000000000000000000000000000600052602260045260246000fd5b6000600282049050600182168061153d57607f821691505b60208210811415611551576115506114f6565b5b50919050565b7f4e487b7100000000000000000000000000000000000000000000000000000000600052601160045260246000fd5b6000611591826111b2565b915061159c836111b2565b9250828210156115af576115ae611557565b5b828203905092915050565b7f426c6f636b68617368206e6f7420617661696c61626c65000000000000000000600082015250565b60006115f0601783611113565b91506115fb826115ba565b602082019050919050565b6000602082019050818103600083015261161f816115e3565b9050919050565b6000819050919050565b61164161163c826111b2565b611626565b82525050565b600073ffffffffffffffffffffffffffffffffffffffff82169050919050565b600061167282611647565b9050919050565b60008160601b9050919050565b600061169182611679565b9050919050565b60006116a382611686565b9050919050565b6116bb6116b682611667565b611698565b82525050565b60006116cd8286611630565b6020820191506116dd8285611630565b6020820191506116ed82846116aa565b601482019150819050949350505050565b7f4e487b7100000000000000000000000000000000000000000000000000000000600052601260045260246000fd5b6000611738826111b2565b9150611743836111b2565b925082611753576117526116fe565b5b828206905092915050565b600081905092915050565b600061177482611108565b61177e818561175e565b935061178e818560208601611124565b80840191505092915050565b60006117a68284611769565b915081905092915050565b7f4e487b7100000000000000000000000000000000000000000000000000000000600052603260045260246000fd5b7f57696e6e696e6720436f6c6f723a200000000000000000000000000000000000815250565b60008190508160005260206000209050919050565b6000815461182881611525565b611832818661175e565b9450600182166000811461184d576001811461185e57611891565b60ff19831686528186019350611891565b61186785611806565b60005b838110156118895781548189015260018201915060208101905061186a565b838801955050505b50505092915050565b7f2057696e6e696e67206e756d6265723a20000000000000000000000000000000815250565b7f2000000000000000000000000000000000000000000000000000000000000000815250565b60006118f1826117e0565b600f82019150611901828661181b565b915061190c8261189a565b60118201915061191c8285611769565b9150611927826118c0565b600182019150611937828461181b565b9150819050949350505050565b7f596f75207069636b65643a200000000000000000000000000000000000000000815250565b7f20616e6420000000000000000000000000000000000000000000000000000000815250565b600061199b82611944565b600c820191506119ab8285611769565b91506119b68261196a565b6005820191506119c6828461181b565b91508190509392505050565b600060408201905081810360008301526119ec8185611157565b90506119fb6020830184611215565b9392505050565b6000611a0d826111b2565b91507fffffffffffffffffffffffffffffffffffffffffffffffffffffffffffffffff821415611a4057611a3f611557565b5b600182019050919050565b6000611a56826111b2565b9150611a61836111b2565b925082611a7157611a706116fe565b5b828204905092915050565b6000611a87826111b2565b9150611a92836111b2565b9250817fffffffffffffffffffffffffffffffffffffffffffffffffffffffffffffffff0483118215151615611acb57611aca611557565b5b828202905092915050565b6000611ae1826113f5565b9150611aec836113f5565b92508260ff03821115611b0257611b01611557565b5b828201905092915050565b60006060820190508181036000830152611b278186611157565b90508181036020830152611b3b8185611157565b90508181036040830152611b4f8184611157565b9050949350505050565b60006060820190508181036000830152611b738186611157565b9050611b826020830185611215565b611b8f6040830184611215565b94935050505056fe4368616e67696e67206772656574696e672066726f6d202725732720746f2027257327a2646970667358221220b0b7db29cf2532c546ec235a030f282512f2dbe240b6c0de997ed96e8c874a9264736f6c634300080c00334465706c6f79696e67206120477265657465722077697468206772656574696e673a",
  "linkReferences": {},
  "deployedLinkReferences": {}
}