{
  "_format": "hh-sol-artifact-1",
  "contractName": "Greeter",
  "sourceName": "contracts/Greeter.sol",
  "abi": [
    {
      "inputs": [
        {
          "internalType": "string",
          "name": "_colorChosen",
          "type": "string"
        },
        {
          "internalType": "uint8",
          "name": "_numChosen",
          "type": "uint8"
        },
        {
          "internalType": "bool",
          "name": "_winning",
          "type": "bool"
        },
        {
          "internalType": "string",
          "name": "_winner",
          "type": "string"
        }
      ],
      "stateMutability": "nonpayable",
      "type": "constructor"
    },
    {
      "inputs": [
        {
          "internalType": "bytes",
          "name": "data",
          "type": "bytes"
        }
      ],
      "name": "bytesToString",
      "outputs": [
        {
          "internalType": "string",
          "name": "",
          "type": "string"
        }
      ],
      "stateMutability": "pure",
      "type": "function"
    },
    {
      "inputs": [
        {
          "internalType": "string",
          "name": "a",
          "type": "string"
        },
        {
          "internalType": "string",
          "name": "b",
          "type": "string"
        }
      ],
      "name": "compareStrings",
      "outputs": [
        {
          "internalType": "bool",
          "name": "",
          "type": "bool"
        }
      ],
      "stateMutability": "pure",
      "type": "function"
    },
    {
      "inputs": [],
      "name": "greet",
      "outputs": [
        {
          "internalType": "string",
          "name": "",
          "type": "string"
        }
      ],
      "stateMutability": "view",
      "type": "function"
    },
    {
      "inputs": [],
      "name": "random",
      "outputs": [
        {
          "internalType": "uint256",
          "name": "",
          "type": "uint256"
        }
      ],
      "stateMutability": "view",
      "type": "function"
    },
    {
      "inputs": [
        {
          "internalType": "uint256",
          "name": "",
          "type": "uint256"
        }
      ],
      "name": "roletas",
      "outputs": [
        {
          "internalType": "uint256",
          "name": "numSorted",
          "type": "uint256"
        },
        {
          "internalType": "string",
          "name": "color",
          "type": "string"
        }
      ],
      "stateMutability": "view",
      "type": "function"
    },
    {
      "inputs": [
        {
          "internalType": "string",
          "name": "_colorChosen",
          "type": "string"
        },
        {
          "internalType": "uint8",
          "name": "_numChosen",
          "type": "uint8"
        }
      ],
      "name": "setGreeting",
      "outputs": [],
      "stateMutability": "nonpayable",
      "type": "function"
    },
    {
      "inputs": [],
      "name": "sortRoleta",
      "outputs": [],
      "stateMutability": "nonpayable",
      "type": "function"
    }
  ],
  "bytecode": "0x60806040523480156200001157600080fd5b50604051620022c8380380620022c883398181016040528101906200003791906200067b565b62000067604051806060016040528060228152602001620022a660229139856200022460201b6200089d1760201c565b6200009a604051806060016040528060228152602001620022a6602291398460ff16620002ca60201b620009391760201c565b8360009080519060200190620000b292919062000399565b5082600360006101000a81548160ff021916908360ff16021790555081600160006101000a81548160ff02191690831515021790555080600290805190602001906200010092919062000399565b506200010b6200042a565b600080546200011a906200075a565b80601f016020809104026020016040519081016040528092919081815260200182805462000148906200075a565b8015620001995780601f106200016d5761010080835404028352916020019162000199565b820191906000526020600020905b8154815290600101906020018083116200017b57829003601f168201915b50505050508160200181905250600360009054906101000a900460ff1660ff1681600001818152505060068190806001815401808255809150506001900390600052602060002090600202016000909190919091506000820151816000015560208201518160010190805190602001906200021692919062000399565b505050505050505062000877565b620002c682826040516024016200023d929190620007ed565b6040516020818303038152906040527f4b5c4277000000000000000000000000000000000000000000000000000000007bffffffffffffffffffffffffffffffffffffffffffffffffffffffff19166020820180517bffffffffffffffffffffffffffffffffffffffffffffffffffffffff83818316178352505050506200037060201b60201c565b5050565b6200036c8282604051602401620002e392919062000843565b6040516020818303038152906040527f9710a9d0000000000000000000000000000000000000000000000000000000007bffffffffffffffffffffffffffffffffffffffffffffffffffffffff19166020820180517bffffffffffffffffffffffffffffffffffffffffffffffffffffffff83818316178352505050506200037060201b60201c565b5050565b60008151905060006a636f6e736f6c652e6c6f679050602083016000808483855afa5050505050565b828054620003a7906200075a565b90600052602060002090601f016020900481019282620003cb576000855562000417565b82601f10620003e657805160ff191683800117855562000417565b8280016001018555821562000417579182015b8281111562000416578251825591602001919060010190620003f9565b5b50905062000426919062000444565b5090565b604051806040016040528060008152602001606081525090565b5b808211156200045f57600081600090555060010162000445565b5090565b6000604051905090565b600080fd5b600080fd5b600080fd5b600080fd5b6000601f19601f8301169050919050565b7f4e487b7100000000000000000000000000000000000000000000000000000000600052604160045260246000fd5b620004cc8262000481565b810181811067ffffffffffffffff82111715620004ee57620004ed62000492565b5b80604052505050565b60006200050362000463565b9050620005118282620004c1565b919050565b600067ffffffffffffffff82111562000534576200053362000492565b5b6200053f8262000481565b9050602081019050919050565b60005b838110156200056c5780820151818401526020810190506200054f565b838111156200057c576000848401525b50505050565b600062000599620005938462000516565b620004f7565b905082815260208101848484011115620005b857620005b76200047c565b5b620005c58482856200054c565b509392505050565b600082601f830112620005e557620005e462000477565b5b8151620005f784826020860162000582565b91505092915050565b600060ff82169050919050565b620006188162000600565b81146200062457600080fd5b50565b60008151905062000638816200060d565b92915050565b60008115159050919050565b62000655816200063e565b81146200066157600080fd5b50565b60008151905062000675816200064a565b92915050565b600080600080608085870312156200069857620006976200046d565b5b600085015167ffffffffffffffff811115620006b957620006b862000472565b5b620006c787828801620005cd565b9450506020620006da8782880162000627565b9350506040620006ed8782880162000664565b925050606085015167ffffffffffffffff81111562000711576200071062000472565b5b6200071f87828801620005cd565b91505092959194509250565b7f4e487b7100000000000000000000000000000000000000000000000000000000600052602260045260246000fd5b600060028204905060018216806200077357607f821691505b602082108114156200078a57620007896200072b565b5b50919050565b600081519050919050565b600082825260208201905092915050565b6000620007b98262000790565b620007c581856200079b565b9350620007d78185602086016200054c565b620007e28162000481565b840191505092915050565b60006040820190508181036000830152620008098185620007ac565b905081810360208301526200081f8184620007ac565b90509392505050565b6000819050919050565b6200083d8162000828565b82525050565b600060408201905081810360008301526200085f8185620007ac565b905062000870602083018462000832565b9392505050565b611a1f80620008876000396000f3fe608060405234801561001057600080fd5b506004361061007d5760003560e01c8063bed34bba1161005b578063bed34bba14610101578063c180096a14610131578063cfae32171461013b578063e28cb30c146101595761007d565b806339614e4f146100825780633b1726b3146100b25780635ec01e4d146100e3575b600080fd5b61009c60048036038101906100979190610fe8565b610175565b6040516100a991906110b9565b60405180910390f35b6100cc60048036038101906100c79190611111565b6101cc565b6040516100da92919061114d565b60405180910390f35b6100eb610288565b6040516100f8919061117d565b60405180910390f35b61011b60048036038101906101169190611239565b6102d5565b60405161012891906112cc565b60405180910390f35b61013961032e565b005b6101436104fd565b60405161015091906110b9565b60405180910390f35b610173600480360381019061016e9190611320565b61053f565b005b606060008251116101bb576040517f08c379a00000000000000000000000000000000000000000000000000000000081526004016101b2906113c8565b60405180910390fd5b606060208301905080915050919050565b600681815481106101dc57600080fd5b906000526020600020906002020160009150905080600001549080600101805461020590611417565b80601f016020809104026020016040519081016040528092919081815260200182805461023190611417565b801561027e5780601f106102535761010080835404028352916020019161027e565b820191906000526020600020905b81548152906001019060200180831161026157829003601f168201915b5050505050905082565b6000806000905060004233836040516020016102a6939291906114e4565b6040516020818303038152906040528051906020012060001c90506064816102ce9190611550565b9250505090565b6000816040516020016102e891906115bd565b604051602081830303815290604052805190602001208360405160200161030f91906115bd565b6040516020818303038152906040528051906020012014905092915050565b60006006600081548110610345576103446115d4565b5b906000526020600020906002020190506001151561042482600101805461036b90611417565b80601f016020809104026020016040519081016040528092919081815260200182805461039790611417565b80156103e45780601f106103b9576101008083540402835291602001916103e4565b820191906000526020600020905b8154815290600101906020018083116103c757829003601f168201915b50505050506040518060400160405280600381526020017f72656400000000000000000000000000000000000000000000000000000000008152506102d5565b151514156104fa576000610436610288565b905080826000018190555060006002826104509190611550565b14156104a9576040518060400160405280600381526020017f72656400000000000000000000000000000000000000000000000000000000008152508260010190805190602001906104a3929190610d5e565b506104f8565b6040518060400160405280600581526020017f626c61636b0000000000000000000000000000000000000000000000000000008152508260010190805190602001906104f6929190610d5e565b505b505b50565b606080606061050d6005546109d5565b9050600481600260405160200161052693929190611709565b6040516020818303038152906040529150819250505090565b6105ec6040518060600160405280602381526020016119c7602391396000805461056890611417565b80601f016020809104026020016040519081016040528092919081815260200182805461059490611417565b80156105e15780601f106105b6576101008083540402835291602001916105e1565b820191906000526020600020905b8154815290600101906020018083116105c457829003601f168201915b505050505084610b5e565b8160009080519060200190610602929190610d5e565b5061063b6040518060600160405280602381526020016119c760239139600360009054906101000a900460ff1660ff168360ff16610bfd565b80600360006101000a81548160ff021916908360ff16021790555061065e61032e565b60006006600081548110610675576106746115d4565b5b9060005260206000209060020201905080600101600490805461069790611417565b6106a2929190610de4565b50600115156107c78260010180546106b990611417565b80601f01602080910402602001604051908101604052809291908181526020018280546106e590611417565b80156107325780601f1061070757610100808354040283529160200191610732565b820191906000526020600020905b81548152906001019060200180831161071557829003601f168201915b50505050506000805461074490611417565b80601f016020809104026020016040519081016040528092919081815260200182805461077090611417565b80156107bd5780601f10610792576101008083540402835291602001916107bd565b820191906000526020600020905b8154815290600101906020018083116107a057829003601f168201915b50505050506102d5565b1515141561085957600360009054906101000a900460ff1660ff16816000015414156108545760018060006101000a81548160ff0219169083151502179055506040518060400160405280600881526020017f596f752057696e2100000000000000000000000000000000000000000000000081525060029080519060200190610852929190610d5e565b505b610898565b6108976040518060400160405280600881526020017f596f75204c6f7365000000000000000000000000000000000000000000000000815250610c9c565b5b505050565b61093582826040516024016108b3929190611767565b6040516020818303038152906040527f4b5c4277000000000000000000000000000000000000000000000000000000007bffffffffffffffffffffffffffffffffffffffffffffffffffffffff19166020820180517bffffffffffffffffffffffffffffffffffffffffffffffffffffffff8381831617835250505050610d35565b5050565b6109d1828260405160240161094f92919061179e565b6040516020818303038152906040527f9710a9d0000000000000000000000000000000000000000000000000000000007bffffffffffffffffffffffffffffffffffffffffffffffffffffffff19166020820180517bffffffffffffffffffffffffffffffffffffffffffffffffffffffff8381831617835250505050610d35565b5050565b60606000821415610a1d576040518060400160405280600181526020017f30000000000000000000000000000000000000000000000000000000000000008152509050610b59565b600082905060005b60008214610a4f578080610a38906117fd565b915050600a82610a489190611846565b9150610a25565b60008167ffffffffffffffff811115610a6b57610a6a610ebd565b5b6040519080825280601f01601f191660200182016040528015610a9d5781602001600182028036833780820191505090505b50905060008290505b60008614610b5157600181610abb9190611877565b90506000600a8088610acd9190611846565b610ad791906118ab565b87610ae29190611877565b6030610aee9190611905565b905060008160f81b905080848481518110610b0c57610b0b6115d4565b5b60200101907effffffffffffffffffffffffffffffffffffffffffffffffffffffffffffff1916908160001a905350600a88610b489190611846565b97505050610aa6565b819450505050505b919050565b610bf8838383604051602401610b769392919061193c565b6040516020818303038152906040527f2ced7cef000000000000000000000000000000000000000000000000000000007bffffffffffffffffffffffffffffffffffffffffffffffffffffffff19166020820180517bffffffffffffffffffffffffffffffffffffffffffffffffffffffff8381831617835250505050610d35565b505050565b610c97838383604051602401610c1593929190611988565b6040516020818303038152906040527f969cdd03000000000000000000000000000000000000000000000000000000007bffffffffffffffffffffffffffffffffffffffffffffffffffffffff19166020820180517bffffffffffffffffffffffffffffffffffffffffffffffffffffffff8381831617835250505050610d35565b505050565b610d3281604051602401610cb091906110b9565b6040516020818303038152906040527f41304fac000000000000000000000000000000000000000000000000000000007bffffffffffffffffffffffffffffffffffffffffffffffffffffffff19166020820180517bffffffffffffffffffffffffffffffffffffffffffffffffffffffff8381831617835250505050610d35565b50565b60008151905060006a636f6e736f6c652e6c6f679050602083016000808483855afa5050505050565b828054610d6a90611417565b90600052602060002090601f016020900481019282610d8c5760008555610dd3565b82601f10610da557805160ff1916838001178555610dd3565b82800160010185558215610dd3579182015b82811115610dd2578251825591602001919060010190610db7565b5b509050610de09190610e71565b5090565b828054610df090611417565b90600052602060002090601f016020900481019282610e125760008555610e60565b82601f10610e235780548555610e60565b82800160010185558215610e6057600052602060002091601f016020900482015b82811115610e5f578254825591600101919060010190610e44565b5b509050610e6d9190610e71565b5090565b5b80821115610e8a576000816000905550600101610e72565b5090565b6000604051905090565b600080fd5b600080fd5b600080fd5b600080fd5b6000601f19601f8301169050919050565b7f4e487b7100000000000000000000000000000000000000000000000000000000600052604160045260246000fd5b610ef582610eac565b810181811067ffffffffffffffff82111715610f1457610f13610ebd565b5b80604052505050565b6000610f27610e8e565b9050610f338282610eec565b919050565b600067ffffffffffffffff821115610f5357610f52610ebd565b5b610f5c82610eac565b9050602081019050919050565b82818337600083830152505050565b6000610f8b610f8684610f38565b610f1d565b905082815260208101848484011115610fa757610fa6610ea7565b5b610fb2848285610f69565b509392505050565b600082601f830112610fcf57610fce610ea2565b5b8135610fdf848260208601610f78565b91505092915050565b600060208284031215610ffe57610ffd610e98565b5b600082013567ffffffffffffffff81111561101c5761101b610e9d565b5b61102884828501610fba565b91505092915050565b600081519050919050565b600082825260208201905092915050565b60005b8381101561106b578082015181840152602081019050611050565b8381111561107a576000848401525b50505050565b600061108b82611031565b611095818561103c565b93506110a581856020860161104d565b6110ae81610eac565b840191505092915050565b600060208201905081810360008301526110d38184611080565b905092915050565b6000819050919050565b6110ee816110db565b81146110f957600080fd5b50565b60008135905061110b816110e5565b92915050565b60006020828403121561112757611126610e98565b5b6000611135848285016110fc565b91505092915050565b611147816110db565b82525050565b6000604082019050611162600083018561113e565b81810360208301526111748184611080565b90509392505050565b6000602082019050611192600083018461113e565b92915050565b600067ffffffffffffffff8211156111b3576111b2610ebd565b5b6111bc82610eac565b9050602081019050919050565b60006111dc6111d784611198565b610f1d565b9050828152602081018484840111156111f8576111f7610ea7565b5b611203848285610f69565b509392505050565b600082601f8301126112205761121f610ea2565b5b81356112308482602086016111c9565b91505092915050565b600080604083850312156112505761124f610e98565b5b600083013567ffffffffffffffff81111561126e5761126d610e9d565b5b61127a8582860161120b565b925050602083013567ffffffffffffffff81111561129b5761129a610e9d565b5b6112a78582860161120b565b9150509250929050565b60008115159050919050565b6112c6816112b1565b82525050565b60006020820190506112e160008301846112bd565b92915050565b600060ff82169050919050565b6112fd816112e7565b811461130857600080fd5b50565b60008135905061131a816112f4565b92915050565b6000806040838503121561133757611336610e98565b5b600083013567ffffffffffffffff81111561135557611354610e9d565b5b6113618582860161120b565b92505060206113728582860161130b565b9150509250929050565b7f496e707574206461746120697320656d70747900000000000000000000000000600082015250565b60006113b260138361103c565b91506113bd8261137c565b602082019050919050565b600060208201905081810360008301526113e1816113a5565b9050919050565b7f4e487b7100000000000000000000000000000000000000000000000000000000600052602260045260246000fd5b6000600282049050600182168061142f57607f821691505b60208210811415611443576114426113e8565b5b50919050565b6000819050919050565b61146461145f826110db565b611449565b82525050565b600073ffffffffffffffffffffffffffffffffffffffff82169050919050565b60006114958261146a565b9050919050565b60008160601b9050919050565b60006114b48261149c565b9050919050565b60006114c6826114a9565b9050919050565b6114de6114d98261148a565b6114bb565b82525050565b60006114f08286611453565b60208201915061150082856114cd565b6014820191506115108284611453565b602082019150819050949350505050565b7f4e487b7100000000000000000000000000000000000000000000000000000000600052601260045260246000fd5b600061155b826110db565b9150611566836110db565b92508261157657611575611521565b5b828206905092915050565b600081905092915050565b600061159782611031565b6115a18185611581565b93506115b181856020860161104d565b80840191505092915050565b60006115c9828461158c565b915081905092915050565b7f4e487b7100000000000000000000000000000000000000000000000000000000600052603260045260246000fd5b7f57696e6e696e6720436f6c6f723a200000000000000000000000000000000000815250565b60008190508160005260206000209050919050565b6000815461164b81611417565b6116558186611581565b945060018216600081146116705760018114611681576116b4565b60ff198316865281860193506116b4565b61168a85611629565b60005b838110156116ac5781548189015260018201915060208101905061168d565b838801955050505b50505092915050565b7f2057696e6e696e67206e756d6265723a20000000000000000000000000000000815250565b7f2000000000000000000000000000000000000000000000000000000000000000815250565b600061171482611603565b600f82019150611724828661163e565b915061172f826116bd565b60118201915061173f828561158c565b915061174a826116e3565b60018201915061175a828461163e565b9150819050949350505050565b600060408201905081810360008301526117818185611080565b905081810360208301526117958184611080565b90509392505050565b600060408201905081810360008301526117b88185611080565b90506117c7602083018461113e565b9392505050565b7f4e487b7100000000000000000000000000000000000000000000000000000000600052601160045260246000fd5b6000611808826110db565b91507fffffffffffffffffffffffffffffffffffffffffffffffffffffffffffffffff82141561183b5761183a6117ce565b5b600182019050919050565b6000611851826110db565b915061185c836110db565b92508261186c5761186b611521565b5b828204905092915050565b6000611882826110db565b915061188d836110db565b9250828210156118a05761189f6117ce565b5b828203905092915050565b60006118b6826110db565b91506118c1836110db565b9250817fffffffffffffffffffffffffffffffffffffffffffffffffffffffffffffffff04831182151516156118fa576118f96117ce565b5b828202905092915050565b6000611910826112e7565b915061191b836112e7565b92508260ff03821115611931576119306117ce565b5b828201905092915050565b600060608201905081810360008301526119568186611080565b9050818103602083015261196a8185611080565b9050818103604083015261197e8184611080565b9050949350505050565b600060608201905081810360008301526119a28186611080565b90506119b1602083018561113e565b6119be604083018461113e565b94935050505056fe4368616e67696e67206772656574696e672066726f6d202725732720746f2027257327a264697066735822122008c03e8b84d2748d533cc8ef8fb6af92674d5426fbf6403af5892b5dfbf9272164736f6c634300080c00334465706c6f79696e67206120477265657465722077697468206772656574696e673a",
  "linkReferences": {},
  "deployedLinkReferences": {}
}