{
  "_format": "hh-sol-artifact-1",
  "contractName": "Beter",
  "sourceName": "contracts/Beter.sol",
  "abi": [
    {
      "inputs": [
        {
          "internalType": "string",
          "name": "_colorChosen",
          "type": "string"
        },
        {
          "internalType": "uint8",
          "name": "_numChosen",
          "type": "uint8"
        },
        {
          "internalType": "bool",
          "name": "_winning",
          "type": "bool"
        },
        {
          "internalType": "string",
          "name": "_winner",
          "type": "string"
        }
      ],
      "stateMutability": "nonpayable",
      "type": "constructor"
    },
    {
      "inputs": [],
      "name": "Bet",
      "outputs": [
        {
          "internalType": "string",
          "name": "",
          "type": "string"
        },
        {
          "internalType": "string",
          "name": "",
          "type": "string"
        }
      ],
      "stateMutability": "view",
      "type": "function"
    },
    {
      "inputs": [
        {
          "internalType": "bytes",
          "name": "data",
          "type": "bytes"
        }
      ],
      "name": "bytesToString",
      "outputs": [
        {
          "internalType": "string",
          "name": "",
          "type": "string"
        }
      ],
      "stateMutability": "pure",
      "type": "function"
    },
    {
      "inputs": [
        {
          "internalType": "string",
          "name": "a",
          "type": "string"
        },
        {
          "internalType": "string",
          "name": "b",
          "type": "string"
        }
      ],
      "name": "compareStrings",
      "outputs": [
        {
          "internalType": "bool",
          "name": "",
          "type": "bool"
        }
      ],
      "stateMutability": "pure",
      "type": "function"
    },
    {
      "inputs": [],
      "name": "random",
      "outputs": [
        {
          "internalType": "uint256",
          "name": "",
          "type": "uint256"
        }
      ],
      "stateMutability": "view",
      "type": "function"
    },
    {
      "inputs": [
        {
          "internalType": "uint256",
          "name": "",
          "type": "uint256"
        }
      ],
      "name": "roletas",
      "outputs": [
        {
          "internalType": "uint256",
          "name": "numSorted",
          "type": "uint256"
        },
        {
          "internalType": "string",
          "name": "color",
          "type": "string"
        }
      ],
      "stateMutability": "view",
      "type": "function"
    },
    {
      "inputs": [
        {
          "internalType": "string",
          "name": "_colorChosen",
          "type": "string"
        },
        {
          "internalType": "uint8",
          "name": "_numChosen",
          "type": "uint8"
        }
      ],
      "name": "setBeting",
      "outputs": [],
      "stateMutability": "nonpayable",
      "type": "function"
    },
    {
      "inputs": [],
      "name": "sortRoleta",
      "outputs": [],
      "stateMutability": "nonpayable",
      "type": "function"
    }
  ],
  "bytecode": "0x60806040523480156200001157600080fd5b5060405162002469380380620024698339818101604052810190620000379190620006b3565b620000836040518060400160405280601e81526020017f4465706c6f79696e672061204265746572207769746820426574696e673a0000815250856200025c60201b620009721760201c565b620000d26040518060400160405280601e81526020017f4465706c6f79696e672061204265746572207769746820426574696e673a00008152508460ff166200030260201b62000a0e1760201c565b8360009080519060200190620000ea929190620003d1565b5082600360006101000a81548160ff021916908360ff16021790555081600160006101000a81548160ff021916908315150217905550806002908051906020019062000138929190620003d1565b506200014362000462565b60008054620001529062000792565b80601f0160208091040260200160405190810160405280929190818152602001828054620001809062000792565b8015620001d15780601f10620001a557610100808354040283529160200191620001d1565b820191906000526020600020905b815481529060010190602001808311620001b357829003601f168201915b50505050508160200181905250600360009054906101000a900460ff1660ff1681600001818152505060068190806001815401808255809150506001900390600052602060002090600202016000909190919091506000820151816000015560208201518160010190805190602001906200024e929190620003d1565b5050505050505050620008af565b620002fe82826040516024016200027592919062000825565b6040516020818303038152906040527f4b5c4277000000000000000000000000000000000000000000000000000000007bffffffffffffffffffffffffffffffffffffffffffffffffffffffff19166020820180517bffffffffffffffffffffffffffffffffffffffffffffffffffffffff8381831617835250505050620003a860201b60201c565b5050565b620003a482826040516024016200031b9291906200087b565b6040516020818303038152906040527f9710a9d0000000000000000000000000000000000000000000000000000000007bffffffffffffffffffffffffffffffffffffffffffffffffffffffff19166020820180517bffffffffffffffffffffffffffffffffffffffffffffffffffffffff8381831617835250505050620003a860201b60201c565b5050565b60008151905060006a636f6e736f6c652e6c6f679050602083016000808483855afa5050505050565b828054620003df9062000792565b90600052602060002090601f0160209004810192826200040357600085556200044f565b82601f106200041e57805160ff19168380011785556200044f565b828001600101855582156200044f579182015b828111156200044e57825182559160200191906001019062000431565b5b5090506200045e91906200047c565b5090565b604051806040016040528060008152602001606081525090565b5b80821115620004975760008160009055506001016200047d565b5090565b6000604051905090565b600080fd5b600080fd5b600080fd5b600080fd5b6000601f19601f8301169050919050565b7f4e487b7100000000000000000000000000000000000000000000000000000000600052604160045260246000fd5b6200050482620004b9565b810181811067ffffffffffffffff82111715620005265762000525620004ca565b5b80604052505050565b60006200053b6200049b565b9050620005498282620004f9565b919050565b600067ffffffffffffffff8211156200056c576200056b620004ca565b5b6200057782620004b9565b9050602081019050919050565b60005b83811015620005a457808201518184015260208101905062000587565b83811115620005b4576000848401525b50505050565b6000620005d1620005cb846200054e565b6200052f565b905082815260208101848484011115620005f057620005ef620004b4565b5b620005fd84828562000584565b509392505050565b600082601f8301126200061d576200061c620004af565b5b81516200062f848260208601620005ba565b91505092915050565b600060ff82169050919050565b620006508162000638565b81146200065c57600080fd5b50565b600081519050620006708162000645565b92915050565b60008115159050919050565b6200068d8162000676565b81146200069957600080fd5b50565b600081519050620006ad8162000682565b92915050565b60008060008060808587031215620006d057620006cf620004a5565b5b600085015167ffffffffffffffff811115620006f157620006f0620004aa565b5b620006ff8782880162000605565b945050602062000712878288016200065f565b935050604062000725878288016200069c565b925050606085015167ffffffffffffffff811115620007495762000748620004aa565b5b620007578782880162000605565b91505092959194509250565b7f4e487b7100000000000000000000000000000000000000000000000000000000600052602260045260246000fd5b60006002820490506001821680620007ab57607f821691505b60208210811415620007c257620007c162000763565b5b50919050565b600081519050919050565b600082825260208201905092915050565b6000620007f182620007c8565b620007fd8185620007d3565b93506200080f81856020860162000584565b6200081a81620004b9565b840191505092915050565b60006040820190508181036000830152620008418185620007e4565b90508181036020830152620008578184620007e4565b90509392505050565b6000819050919050565b620008758162000860565b82525050565b60006040820190508181036000830152620008978185620007e4565b9050620008a860208301846200086a565b9392505050565b611baa80620008bf6000396000f3fe608060405234801561001057600080fd5b506004361061007d5760003560e01c80635ec01e4d1161005b5780635ec01e4d146100ff578063bed34bba1461011d578063c180096a1461014d578063c8a76494146101575761007d565b80632ab59f601461008257806339614e4f1461009e5780633b1726b3146100ce575b600080fd5b61009c600480360381019061009791906110f6565b610176565b005b6100b860048036038101906100b391906111f3565b6105ca565b6040516100c591906112c4565b60405180910390f35b6100e860048036038101906100e3919061131c565b610621565b6040516100f6929190611358565b60405180910390f35b6101076106dd565b6040516101149190611388565b60405180910390f35b610137600480360381019061013291906113a3565b61078d565b6040516101449190611436565b60405180910390f35b6101556107e6565b005b61015f6108dd565b60405161016d929190611451565b60405180910390f35b610223604051806060016040528060218152602001611b54602191396000805461019f906114b7565b80601f01602080910402602001604051908101604052809291908181526020018280546101cb906114b7565b80156102185780601f106101ed57610100808354040283529160200191610218565b820191906000526020600020905b8154815290600101906020018083116101fb57829003601f168201915b505050505084610aaa565b8160009080519060200190610239929190610e33565b50610272604051806060016040528060218152602001611b5460219139600360009054906101000a900460ff1660ff168360ff16610b49565b80600360006101000a81548160ff021916908360ff1602179055506102956107e6565b600060066000815481106102ac576102ab6114e9565b5b906000526020600020906002020190508060010160049080546102ce906114b7565b6102d9929190610eb9565b506102e78160000154610be8565b6001151561040b8260010180546102fd906114b7565b80601f0160208091040260200160405190810160405280929190818152602001828054610329906114b7565b80156103765780601f1061034b57610100808354040283529160200191610376565b820191906000526020600020905b81548152906001019060200180831161035957829003601f168201915b505050505060008054610388906114b7565b80601f01602080910402602001604051908101604052809291908181526020018280546103b4906114b7565b80156104015780601f106103d657610100808354040283529160200191610401565b820191906000526020600020905b8154815290600101906020018083116103e457829003601f168201915b505050505061078d565b151514156104ee57600360009054906101000a900460ff1660ff168160000154141561049c5760018060006101000a81548160ff0219169083151502179055506040518060400160405280601181526020017f596f752057696e21284249472057494e2900000000000000000000000000000081525060029080519060200190610496929190610e33565b506104e9565b6040518060400160405280600881526020017f596f752057696e21000000000000000000000000000000000000000000000000815250600290805190602001906104e7929190610e33565b505b6105c5565b600360009054906101000a900460ff1660ff16816000015414156105775760018060006101000a81548160ff0219169083151502179055506040518060400160405280600881526020017f596f752057696e2100000000000000000000000000000000000000000000000081525060029080519060200190610571929190610e33565b506105c4565b6040518060400160405280600981526020017f596f75204c6f7365210000000000000000000000000000000000000000000000815250600290805190602001906105c2929190610e33565b505b5b505050565b60606000825111610610576040517f08c379a000000000000000000000000000000000000000000000000000000000815260040161060790611564565b60405180910390fd5b606060208301905080915050919050565b6006818154811061063157600080fd5b906000526020600020906002020160009150905080600001549080600101805461065a906114b7565b80601f0160208091040260200160405190810160405280929190818152602001828054610686906114b7565b80156106d35780601f106106a8576101008083540402835291602001916106d3565b820191906000526020600020905b8154815290600101906020018083116106b657829003601f168201915b5050505050905082565b60008060001b6001436106f091906115b3565b401415610732576040517f08c379a000000000000000000000000000000000000000000000000000000000815260040161072990611633565b60405180910390fd5b600060014361074191906115b3565b4060001c9050600042823360405160200161075e939291906116ee565b6040516020818303038152906040528051906020012060001c9050603281610786919061175a565b9250505090565b6000816040516020016107a091906117c7565b60405160208183030381529060405280519060200120836040516020016107c791906117c7565b6040516020818303038152906040528051906020012014905092915050565b600060066000815481106107fd576107fc6114e9565b5b9060005260206000209060020201905060006108176106dd565b90508082600001819055506000600282610831919061175a565b141561088a576040518060400160405280600581526020017f626c61636b000000000000000000000000000000000000000000000000000000815250826001019080519060200190610884929190610e33565b506108d9565b6040518060400160405280600381526020017f72656400000000000000000000000000000000000000000000000000000000008152508260010190805190602001906108d7929190610e33565b505b5050565b606080606080606080600060055490506108f98160ff16610c81565b9250610916600360009054906101000a900460ff1660ff16610c81565b91506004600260405160200161092d9291906118be565b604051602081830303815290604052945081600060405160200161095292919061194c565b604051602081830303815290604052935084849650965050505050509091565b610a0a8282604051602401610988929190611451565b6040516020818303038152906040527f4b5c4277000000000000000000000000000000000000000000000000000000007bffffffffffffffffffffffffffffffffffffffffffffffffffffffff19166020820180517bffffffffffffffffffffffffffffffffffffffffffffffffffffffff8381831617835250505050610e0a565b5050565b610aa68282604051602401610a2492919061198e565b6040516020818303038152906040527f9710a9d0000000000000000000000000000000000000000000000000000000007bffffffffffffffffffffffffffffffffffffffffffffffffffffffff19166020820180517bffffffffffffffffffffffffffffffffffffffffffffffffffffffff8381831617835250505050610e0a565b5050565b610b44838383604051602401610ac2939291906119be565b6040516020818303038152906040527f2ced7cef000000000000000000000000000000000000000000000000000000007bffffffffffffffffffffffffffffffffffffffffffffffffffffffff19166020820180517bffffffffffffffffffffffffffffffffffffffffffffffffffffffff8381831617835250505050610e0a565b505050565b610be3838383604051602401610b6193929190611a0a565b6040516020818303038152906040527f969cdd03000000000000000000000000000000000000000000000000000000007bffffffffffffffffffffffffffffffffffffffffffffffffffffffff19166020820180517bffffffffffffffffffffffffffffffffffffffffffffffffffffffff8381831617835250505050610e0a565b505050565b610c7e81604051602401610bfc9190611388565b6040516020818303038152906040527ff5b1bba9000000000000000000000000000000000000000000000000000000007bffffffffffffffffffffffffffffffffffffffffffffffffffffffff19166020820180517bffffffffffffffffffffffffffffffffffffffffffffffffffffffff8381831617835250505050610e0a565b50565b60606000821415610cc9576040518060400160405280600181526020017f30000000000000000000000000000000000000000000000000000000000000008152509050610e05565b600082905060005b60008214610cfb578080610ce490611a48565b915050600a82610cf49190611a91565b9150610cd1565b60008167ffffffffffffffff811115610d1757610d16610f92565b5b6040519080825280601f01601f191660200182016040528015610d495781602001600182028036833780820191505090505b50905060008290505b60008614610dfd57600181610d6791906115b3565b90506000600a8088610d799190611a91565b610d839190611ac2565b87610d8e91906115b3565b6030610d9a9190611b1c565b905060008160f81b905080848481518110610db857610db76114e9565b5b60200101907effffffffffffffffffffffffffffffffffffffffffffffffffffffffffffff1916908160001a905350600a88610df49190611a91565b97505050610d52565b819450505050505b919050565b60008151905060006a636f6e736f6c652e6c6f679050602083016000808483855afa5050505050565b828054610e3f906114b7565b90600052602060002090601f016020900481019282610e615760008555610ea8565b82601f10610e7a57805160ff1916838001178555610ea8565b82800160010185558215610ea8579182015b82811115610ea7578251825591602001919060010190610e8c565b5b509050610eb59190610f46565b5090565b828054610ec5906114b7565b90600052602060002090601f016020900481019282610ee75760008555610f35565b82601f10610ef85780548555610f35565b82800160010185558215610f3557600052602060002091601f016020900482015b82811115610f34578254825591600101919060010190610f19565b5b509050610f429190610f46565b5090565b5b80821115610f5f576000816000905550600101610f47565b5090565b6000604051905090565b600080fd5b600080fd5b600080fd5b600080fd5b6000601f19601f8301169050919050565b7f4e487b7100000000000000000000000000000000000000000000000000000000600052604160045260246000fd5b610fca82610f81565b810181811067ffffffffffffffff82111715610fe957610fe8610f92565b5b80604052505050565b6000610ffc610f63565b90506110088282610fc1565b919050565b600067ffffffffffffffff82111561102857611027610f92565b5b61103182610f81565b9050602081019050919050565b82818337600083830152505050565b600061106061105b8461100d565b610ff2565b90508281526020810184848401111561107c5761107b610f7c565b5b61108784828561103e565b509392505050565b600082601f8301126110a4576110a3610f77565b5b81356110b484826020860161104d565b91505092915050565b600060ff82169050919050565b6110d3816110bd565b81146110de57600080fd5b50565b6000813590506110f0816110ca565b92915050565b6000806040838503121561110d5761110c610f6d565b5b600083013567ffffffffffffffff81111561112b5761112a610f72565b5b6111378582860161108f565b9250506020611148858286016110e1565b9150509250929050565b600067ffffffffffffffff82111561116d5761116c610f92565b5b61117682610f81565b9050602081019050919050565b600061119661119184611152565b610ff2565b9050828152602081018484840111156111b2576111b1610f7c565b5b6111bd84828561103e565b509392505050565b600082601f8301126111da576111d9610f77565b5b81356111ea848260208601611183565b91505092915050565b60006020828403121561120957611208610f6d565b5b600082013567ffffffffffffffff81111561122757611226610f72565b5b611233848285016111c5565b91505092915050565b600081519050919050565b600082825260208201905092915050565b60005b8381101561127657808201518184015260208101905061125b565b83811115611285576000848401525b50505050565b60006112968261123c565b6112a08185611247565b93506112b0818560208601611258565b6112b981610f81565b840191505092915050565b600060208201905081810360008301526112de818461128b565b905092915050565b6000819050919050565b6112f9816112e6565b811461130457600080fd5b50565b600081359050611316816112f0565b92915050565b60006020828403121561133257611331610f6d565b5b600061134084828501611307565b91505092915050565b611352816112e6565b82525050565b600060408201905061136d6000830185611349565b818103602083015261137f818461128b565b90509392505050565b600060208201905061139d6000830184611349565b92915050565b600080604083850312156113ba576113b9610f6d565b5b600083013567ffffffffffffffff8111156113d8576113d7610f72565b5b6113e48582860161108f565b925050602083013567ffffffffffffffff81111561140557611404610f72565b5b6114118582860161108f565b9150509250929050565b60008115159050919050565b6114308161141b565b82525050565b600060208201905061144b6000830184611427565b92915050565b6000604082019050818103600083015261146b818561128b565b9050818103602083015261147f818461128b565b90509392505050565b7f4e487b7100000000000000000000000000000000000000000000000000000000600052602260045260246000fd5b600060028204905060018216806114cf57607f821691505b602082108114156114e3576114e2611488565b5b50919050565b7f4e487b7100000000000000000000000000000000000000000000000000000000600052603260045260246000fd5b7f496e707574206461746120697320656d70747900000000000000000000000000600082015250565b600061154e601383611247565b915061155982611518565b602082019050919050565b6000602082019050818103600083015261157d81611541565b9050919050565b7f4e487b7100000000000000000000000000000000000000000000000000000000600052601160045260246000fd5b60006115be826112e6565b91506115c9836112e6565b9250828210156115dc576115db611584565b5b828203905092915050565b7f426c6f636b68617368206e6f7420617661696c61626c65000000000000000000600082015250565b600061161d601783611247565b9150611628826115e7565b602082019050919050565b6000602082019050818103600083015261164c81611610565b9050919050565b6000819050919050565b61166e611669826112e6565b611653565b82525050565b600073ffffffffffffffffffffffffffffffffffffffff82169050919050565b600061169f82611674565b9050919050565b60008160601b9050919050565b60006116be826116a6565b9050919050565b60006116d0826116b3565b9050919050565b6116e86116e382611694565b6116c5565b82525050565b60006116fa828661165d565b60208201915061170a828561165d565b60208201915061171a82846116d7565b601482019150819050949350505050565b7f4e487b7100000000000000000000000000000000000000000000000000000000600052601260045260246000fd5b6000611765826112e6565b9150611770836112e6565b9250826117805761177f61172b565b5b828206905092915050565b600081905092915050565b60006117a18261123c565b6117ab818561178b565b93506117bb818560208601611258565b80840191505092915050565b60006117d38284611796565b915081905092915050565b7f57696e6e696e6720436f6c6f723a200000000000000000000000000000000000815250565b60008190508160005260206000209050919050565b60008154611826816114b7565b611830818661178b565b9450600182166000811461184b576001811461185c5761188f565b60ff1983168652818601935061188f565b61186585611804565b60005b8381101561188757815481890152600182019150602081019050611868565b838801955050505b50505092915050565b7f2000000000000000000000000000000000000000000000000000000000000000815250565b60006118c9826117de565b600f820191506118d98285611819565b91506118e482611898565b6001820191506118f48284611819565b91508190509392505050565b7f596f75207069636b65643a200000000000000000000000000000000000000000815250565b7f20616e6420000000000000000000000000000000000000000000000000000000815250565b600061195782611900565b600c820191506119678285611796565b915061197282611926565b6005820191506119828284611819565b91508190509392505050565b600060408201905081810360008301526119a8818561128b565b90506119b76020830184611349565b9392505050565b600060608201905081810360008301526119d8818661128b565b905081810360208301526119ec818561128b565b90508181036040830152611a00818461128b565b9050949350505050565b60006060820190508181036000830152611a24818661128b565b9050611a336020830185611349565b611a406040830184611349565b949350505050565b6000611a53826112e6565b91507fffffffffffffffffffffffffffffffffffffffffffffffffffffffffffffffff821415611a8657611a85611584565b5b600182019050919050565b6000611a9c826112e6565b9150611aa7836112e6565b925082611ab757611ab661172b565b5b828204905092915050565b6000611acd826112e6565b9150611ad8836112e6565b9250817fffffffffffffffffffffffffffffffffffffffffffffffffffffffffffffffff0483118215151615611b1157611b10611584565b5b828202905092915050565b6000611b27826110bd565b9150611b32836110bd565b92508260ff03821115611b4857611b47611584565b5b82820190509291505056fe4368616e67696e6720426574696e672066726f6d202725732720746f2027257327a2646970667358221220a3702c049cca227a4469a3ffe035fc3b1d54ebf7b36aeb4699ac23c4850b1f3064736f6c634300080c0033",
  "linkReferences": {},
  "deployedLinkReferences": {}
}